{
  "contractName": "TechInsurance",
  "abi": [
    {
      "anonymous": false,
      "inputs": [
        {
          "indexed": false,
          "internalType": "address",
          "name": "target",
          "type": "address"
        },
        {
          "indexed": false,
          "internalType": "uint256",
          "name": "amount",
          "type": "uint256"
        }
      ],
      "name": "Refund",
      "type": "event"
    },
    {
      "anonymous": false,
      "inputs": [
        {
          "indexed": false,
          "internalType": "uint256",
          "name": "productId",
          "type": "uint256"
        },
        {
          "indexed": false,
          "internalType": "string",
          "name": "productName",
          "type": "string"
        },
        {
          "indexed": false,
          "internalType": "uint256",
          "name": "price",
          "type": "uint256"
        },
        {
          "indexed": false,
          "internalType": "bool",
          "name": "offered",
          "type": "bool"
        }
      ],
      "name": "productLoaded",
      "type": "event"
    },
    {
      "inputs": [
        {
          "internalType": "address",
          "name": "",
          "type": "address"
        }
      ],
      "name": "_balances",
      "outputs": [
        {
          "internalType": "uint256",
          "name": "",
          "type": "uint256"
        }
      ],
      "stateMutability": "view",
      "type": "function",
      "constant": true
    },
    {
      "inputs": [
        {
          "internalType": "uint256",
          "name": "",
          "type": "uint256"
        }
      ],
      "name": "_owners",
      "outputs": [
        {
          "internalType": "address",
          "name": "",
          "type": "address"
        }
      ],
      "stateMutability": "view",
      "type": "function",
      "constant": true
    },
    {
      "inputs": [
        {
          "internalType": "address",
          "name": "",
          "type": "address"
        },
        {
          "internalType": "uint256",
          "name": "",
          "type": "uint256"
        }
      ],
      "name": "client",
      "outputs": [
        {
          "internalType": "bool",
          "name": "isValid",
          "type": "bool"
        },
        {
          "internalType": "uint256",
          "name": "time",
          "type": "uint256"
        }
      ],
      "stateMutability": "view",
      "type": "function",
      "constant": true
    },
    {
      "inputs": [
        {
          "internalType": "uint256",
          "name": "",
          "type": "uint256"
        }
      ],
      "name": "productIndex",
      "outputs": [
        {
          "internalType": "uint256",
          "name": "productId",
          "type": "uint256"
        },
        {
          "internalType": "string",
          "name": "productName",
          "type": "string"
        },
        {
          "internalType": "uint256",
          "name": "price",
          "type": "uint256"
        },
        {
          "internalType": "bool",
          "name": "offered",
          "type": "bool"
        },
        {
          "internalType": "address",
          "name": "ProductOwnerAddress",
          "type": "address"
        },
        {
          "internalType": "address",
          "name": "buyerAddress",
          "type": "address"
        }
      ],
      "stateMutability": "view",
      "type": "function",
      "constant": true
    },
    {
      "inputs": [
        {
          "internalType": "uint256",
          "name": "_productId",
          "type": "uint256"
        },
        {
          "internalType": "string",
          "name": "_productName",
          "type": "string"
        },
        {
          "internalType": "uint256",
          "name": "_price",
          "type": "uint256"
        }
      ],
      "name": "addProduct",
      "outputs": [],
      "stateMutability": "nonpayable",
      "type": "function"
    },
    {
      "inputs": [
        {
          "internalType": "uint256",
          "name": "_productIndex",
          "type": "uint256"
        }
      ],
      "name": "doNotOffer",
      "outputs": [
        {
          "internalType": "bool",
          "name": "",
          "type": "bool"
        }
      ],
      "stateMutability": "nonpayable",
      "type": "function"
    },
    {
      "inputs": [
        {
          "internalType": "uint256",
          "name": "_productIndex",
          "type": "uint256"
        }
      ],
      "name": "forOffer",
      "outputs": [
        {
          "internalType": "bool",
          "name": "",
          "type": "bool"
        }
      ],
      "stateMutability": "nonpayable",
      "type": "function"
    },
    {
      "inputs": [
        {
          "internalType": "uint256",
          "name": "_productIndex",
          "type": "uint256"
        },
        {
          "internalType": "uint256",
          "name": "_price",
          "type": "uint256"
        }
      ],
      "name": "changePrice",
      "outputs": [],
      "stateMutability": "view",
      "type": "function",
      "constant": true
    },
    {
      "inputs": [
        {
          "internalType": "address",
          "name": "_insOwner",
          "type": "address"
        }
      ],
      "name": "balanceOf",
      "outputs": [
        {
          "internalType": "uint256",
          "name": "",
          "type": "uint256"
        }
      ],
      "stateMutability": "view",
      "type": "function",
      "constant": true
    },
    {
      "inputs": [
        {
          "internalType": "uint256",
          "name": "_productIndex",
          "type": "uint256"
        }
      ],
      "name": "buyInsurance",
      "outputs": [],
      "stateMutability": "payable",
      "type": "function",
      "payable": true
    },
    {
      "inputs": [
        {
          "internalType": "uint256",
          "name": "_productId",
          "type": "uint256"
        }
      ],
      "name": "Fatch",
      "outputs": [
        {
          "internalType": "uint256",
          "name": "productId",
          "type": "uint256"
        },
        {
          "internalType": "string",
          "name": "productName",
          "type": "string"
        },
        {
          "internalType": "uint256",
          "name": "price",
          "type": "uint256"
        },
        {
          "internalType": "bool",
          "name": "offere",
          "type": "bool"
        },
        {
          "internalType": "address",
          "name": "owner",
          "type": "address"
        },
        {
          "internalType": "address",
          "name": "buyer",
          "type": "address"
        }
      ],
      "stateMutability": "view",
      "type": "function",
      "constant": true
    },
    {
      "inputs": [
        {
          "internalType": "uint256",
          "name": "_tokenId",
          "type": "uint256"
        }
      ],
      "name": "ownerOf",
      "outputs": [
        {
          "internalType": "address",
          "name": "owner",
          "type": "address"
        }
      ],
      "stateMutability": "view",
      "type": "function",
      "constant": true
    },
    {
      "inputs": [
        {
          "internalType": "address",
          "name": "to",
          "type": "address"
        },
        {
          "internalType": "uint256",
          "name": "tokenId",
          "type": "uint256"
        }
      ],
      "name": "transferID",
      "outputs": [],
      "stateMutability": "nonpayable",
      "type": "function"
    },
    {
      "inputs": [
        {
          "internalType": "address",
          "name": "from",
          "type": "address"
        },
        {
          "internalType": "address",
          "name": "to",
          "type": "address"
        },
        {
          "internalType": "uint256",
          "name": "tokenId",
          "type": "uint256"
        }
      ],
      "name": "_transfer",
      "outputs": [],
      "stateMutability": "nonpayable",
      "type": "function"
    },
    {
      "inputs": [
        {
          "internalType": "address",
          "name": "to",
          "type": "address"
        },
        {
          "internalType": "uint256",
          "name": "tokenId",
          "type": "uint256"
        }
      ],
      "name": "mint",
      "outputs": [],
      "stateMutability": "nonpayable",
      "type": "function"
    },
    {
      "inputs": [
        {
          "internalType": "uint256",
          "name": "tokenId",
          "type": "uint256"
        }
      ],
      "name": "_exists",
      "outputs": [
        {
          "internalType": "bool",
          "name": "",
          "type": "bool"
        }
      ],
      "stateMutability": "view",
      "type": "function",
      "constant": true
    }
  ],
  "bytecode": "0x608060405234801561001057600080fd5b50611971806100206000396000f3fe6080604052600436106100f35760003560e01c806396e2b6b91161008a578063af94549511610059578063af94549514610718578063b3de019c14610790578063e8d8c163146107d5578063f8e76cc014610830576100f3565b806396e2b6b9146105e3578063992924a614610634578063a86a658c14610699578063a92e118f146106c7576100f3565b80634ac2eca0116100c65780634ac2eca0146103af5780636352211e146104b45780636ebcf6071461051957806370a082311461057e576100f3565b806330e0789e146100f8578063322d5a331461017357806340c10f19146102785780634268ff2d146102d3575b600080fd5b34801561010457600080fd5b506101716004803603606081101561011b57600080fd5b81019080803573ffffffffffffffffffffffffffffffffffffffff169060200190929190803573ffffffffffffffffffffffffffffffffffffffff16906020019092919080359060200190929190505050610881565b005b34801561017f57600080fd5b506101ac6004803603602081101561019657600080fd5b8101908080359060200190929190505050610a83565b604051808781526020018060200186815260200185151581526020018473ffffffffffffffffffffffffffffffffffffffff1681526020018373ffffffffffffffffffffffffffffffffffffffff168152602001828103825287818151815260200191508051906020019080838360005b8381101561023857808201518184015260208101905061021d565b50505050905090810190601f1680156102655780820380516001836020036101000a031916815260200191505b5097505050505050505060405180910390f35b34801561028457600080fd5b506102d16004803603604081101561029b57600080fd5b81019080803573ffffffffffffffffffffffffffffffffffffffff16906020019092919080359060200190929190505050610ba4565b005b3480156102df57600080fd5b506103ad600480360360608110156102f657600080fd5b81019080803590602001909291908035906020019064010000000081111561031d57600080fd5b82018360208201111561032f57600080fd5b8035906020019184600183028401116401000000008311171561035157600080fd5b91908080601f016020809104026020016040519081016040528093929190818152602001838380828437600081840152601f19601f82011690508083019250505050505050919291929080359060200190929190505050610ce9565b005b3480156103bb57600080fd5b506103e8600480360360208110156103d257600080fd5b8101908080359060200190929190505050610f31565b604051808781526020018060200186815260200185151581526020018473ffffffffffffffffffffffffffffffffffffffff1681526020018373ffffffffffffffffffffffffffffffffffffffff168152602001828103825287818151815260200191508051906020019080838360005b83811015610474578082015181840152602081019050610459565b50505050905090810190601f1680156104a15780820380516001836020036101000a031916815260200191505b5097505050505050505060405180910390f35b3480156104c057600080fd5b506104ed600480360360208110156104d757600080fd5b81019080803590602001909291905050506110bf565b604051808273ffffffffffffffffffffffffffffffffffffffff16815260200191505060405180910390f35b34801561052557600080fd5b506105686004803603602081101561053c57600080fd5b81019080803573ffffffffffffffffffffffffffffffffffffffff169060200190929190505050611135565b6040518082815260200191505060405180910390f35b34801561058a57600080fd5b506105cd600480360360208110156105a157600080fd5b81019080803573ffffffffffffffffffffffffffffffffffffffff16906020019092919050505061114d565b6040518082815260200191505060405180910390f35b3480156105ef57600080fd5b5061061c6004803603602081101561060657600080fd5b81019080803590602001909291905050506111f1565b60405180821515815260200191505060405180910390f35b34801561064057600080fd5b5061066d6004803603602081101561065757600080fd5b81019080803590602001909291905050506112eb565b604051808273ffffffffffffffffffffffffffffffffffffffff16815260200191505060405180910390f35b6106c5600480360360208110156106af57600080fd5b810190808035906020019092919050505061131e565b005b3480156106d357600080fd5b50610700600480360360208110156106ea57600080fd5b8101908080359060200190929190505050611495565b60405180821515815260200191505060405180910390f35b34801561072457600080fd5b506107716004803603604081101561073b57600080fd5b81019080803573ffffffffffffffffffffffffffffffffffffffff1690602001909291908035906020019092919050505061158f565b6040518083151581526020018281526020019250505060405180910390f35b34801561079c57600080fd5b506107d3600480360360408110156107b357600080fd5b8101908080359060200190929190803590602001909291905050506115cd565b005b3480156107e157600080fd5b5061082e600480360360408110156107f857600080fd5b81019080803573ffffffffffffffffffffffffffffffffffffffff1690602001909291908035906020019092919050505061160b565b005b34801561083c57600080fd5b506108696004803603602081101561085357600080fd5b8101908080359060200190929190505050611766565b60405180821515815260200191505060405180910390f35b8273ffffffffffffffffffffffffffffffffffffffff166108a1826110bf565b73ffffffffffffffffffffffffffffffffffffffff161461090d576040517f08c379a00000000000000000000000000000000000000000000000000000000081526004018080602001828103825260298152602001806119136029913960400191505060405180910390fd5b600073ffffffffffffffffffffffffffffffffffffffff168273ffffffffffffffffffffffffffffffffffffffff161415610993576040517f08c379a00000000000000000000000000000000000000000000000000000000081526004018080602001828103825260248152602001806118ef6024913960400191505060405180910390fd5b60018060008573ffffffffffffffffffffffffffffffffffffffff1673ffffffffffffffffffffffffffffffffffffffff1681526020019081526020016000206000828254039250508190555060018060008473ffffffffffffffffffffffffffffffffffffffff1673ffffffffffffffffffffffffffffffffffffffff168152602001908152602001600020600082825401925050819055508160008083815260200190815260200160002060006101000a81548173ffffffffffffffffffffffffffffffffffffffff021916908373ffffffffffffffffffffffffffffffffffffffff160217905550505050565b6002602052806000526040600020600091509050806000015490806001018054600181600116156101000203166002900480601f016020809104026020016040519081016040528092919081815260200182805460018160011615610100020316600290048015610b355780601f10610b0a57610100808354040283529160200191610b35565b820191906000526020600020905b815481529060010190602001808311610b1857829003601f168201915b5050505050908060020154908060030160009054906101000a900460ff16908060030160019054906101000a900473ffffffffffffffffffffffffffffffffffffffff16908060040160009054906101000a900473ffffffffffffffffffffffffffffffffffffffff16905086565b600073ffffffffffffffffffffffffffffffffffffffff168273ffffffffffffffffffffffffffffffffffffffff161415610c47576040517f08c379a00000000000000000000000000000000000000000000000000000000081526004018080602001828103825260208152602001807f4552433732313a206d696e7420746f20746865207a65726f206164647265737381525060200191505060405180910390fd5b60018060008473ffffffffffffffffffffffffffffffffffffffff1673ffffffffffffffffffffffffffffffffffffffff168152602001908152602001600020600082825401925050819055508160008083815260200190815260200160002060006101000a81548173ffffffffffffffffffffffffffffffffffffffff021916908373ffffffffffffffffffffffffffffffffffffffff1602179055505050565b610cf16117d1565b6040518060c001604052808581526020018481526020018381526020016001151581526020013373ffffffffffffffffffffffffffffffffffffffff168152602001600073ffffffffffffffffffffffffffffffffffffffff168152509050600460008154809291906001019190505550806002600060046000815480929190600101919050558152602001908152602001600020600082015181600001556020820151816001019080519060200190610dac929190611835565b506040820151816002015560608201518160030160006101000a81548160ff02191690831515021790555060808201518160030160016101000a81548173ffffffffffffffffffffffffffffffffffffffff021916908373ffffffffffffffffffffffffffffffffffffffff16021790555060a08201518160040160006101000a81548173ffffffffffffffffffffffffffffffffffffffff021916908373ffffffffffffffffffffffffffffffffffffffff160217905550905050610e7433600454610ba4565b7f9c7b112b789a2aa522a6e63777ac7d8e1693da0de1b3e7951fadc6218520dc15848484600160405180858152602001806020018481526020018315158152602001828103825285818151815260200191508051906020019080838360005b83811015610eee578082015181840152602081019050610ed3565b50505050905090810190601f168015610f1b5780820380516001836020036101000a031916815260200191505b509550505050505060405180910390a150505050565b6000606060008060008060026000888152602001908152602001600020600001549550600260008881526020019081526020016000206001018054600181600116156101000203166002900480601f016020809104026020016040519081016040528092919081815260200182805460018160011615610100020316600290048015610ffe5780601f10610fd357610100808354040283529160200191610ffe565b820191906000526020600020905b815481529060010190602001808311610fe157829003601f168201915b50505050509450600260008881526020019081526020016000206002015493506002600088815260200190815260200160002060030160009054906101000a900460ff1692506002600088815260200190815260200160002060030160019054906101000a900473ffffffffffffffffffffffffffffffffffffffff1691506002600088815260200190815260200160002060040160009054906101000a900473ffffffffffffffffffffffffffffffffffffffff16905091939550919395565b600080600083815260200190815260200160002060009054906101000a900473ffffffffffffffffffffffffffffffffffffffff169050600073ffffffffffffffffffffffffffffffffffffffff168173ffffffffffffffffffffffffffffffffffffffff16141561113057600080fd5b919050565b60016020528060005260406000206000915090505481565b60008073ffffffffffffffffffffffffffffffffffffffff168273ffffffffffffffffffffffffffffffffffffffff16141561118857600080fd5b60016000600560009054906101000a900473ffffffffffffffffffffffffffffffffffffffff1673ffffffffffffffffffffffffffffffffffffffff1673ffffffffffffffffffffffffffffffffffffffff168152602001908152602001600020549050919050565b6000600560009054906101000a900473ffffffffffffffffffffffffffffffffffffffff1673ffffffffffffffffffffffffffffffffffffffff163373ffffffffffffffffffffffffffffffffffffffff16146112b6576040517f08c379a00000000000000000000000000000000000000000000000000000000081526004018080602001828103825260098152602001807f596573204f66666572000000000000000000000000000000000000000000000081525060200191505060405180910390fd5b60016002600084815260200190815260200160002060030160006101000a81548160ff02191690831515021790559050919050565b60006020528060005260406000206000915054906101000a900473ffffffffffffffffffffffffffffffffffffffff1681565b346002600083815260200190815260200160002060020154146113a9576040517f08c379a000000000000000000000000000000000000000000000000000000000815260040180806020018281038252600b8152602001807f4e6f7420636f727265637400000000000000000000000000000000000000000081525060200191505060405180910390fd5b6113b16118b5565b60018160000190151590811515815250504381602001818152505080600360003373ffffffffffffffffffffffffffffffffffffffff1673ffffffffffffffffffffffffffffffffffffffff168152602001908152602001600020600084815260200190815260200160002060008201518160000160006101000a81548160ff021916908315150217905550602082015181600101559050503373ffffffffffffffffffffffffffffffffffffffff166108fc349081150290604051600060405180830381858888f19350505050158015611490573d6000803e3d6000fd5b505050565b6000600560009054906101000a900473ffffffffffffffffffffffffffffffffffffffff1673ffffffffffffffffffffffffffffffffffffffff163373ffffffffffffffffffffffffffffffffffffffff161461155a576040517f08c379a00000000000000000000000000000000000000000000000000000000081526004018080602001828103825260088152602001807f4e6f204f6666657200000000000000000000000000000000000000000000000081525060200191505060405180910390fd5b60006002600084815260200190815260200160002060030160006101000a81548160ff02191690831515021790559050919050565b6003602052816000526040600020602052806000526040600020600091509150508060000160009054906101000a900460ff16908060010154905082565b6001600260008481526020019081526020016000206002015410156115f157600080fd5b806002600084815260200190815260200160002050505050565b3373ffffffffffffffffffffffffffffffffffffffff1661162b826110bf565b73ffffffffffffffffffffffffffffffffffffffff16146116b4576040517f08c379a000000000000000000000000000000000000000000000000000000000815260040180806020018281038252600a8152602001807f6f6e6c79206f776e65720000000000000000000000000000000000000000000081525060200191505060405180910390fd5b600073ffffffffffffffffffffffffffffffffffffffff168273ffffffffffffffffffffffffffffffffffffffff161415611757576040517f08c379a00000000000000000000000000000000000000000000000000000000081526004018080602001828103825260118152602001807f6164647265737320746f206e6f7420302000000000000000000000000000000081525060200191505060405180910390fd5b611762338383610881565b5050565b60008073ffffffffffffffffffffffffffffffffffffffff1660008084815260200190815260200160002060009054906101000a900473ffffffffffffffffffffffffffffffffffffffff1673ffffffffffffffffffffffffffffffffffffffff1614159050919050565b6040518060c00160405280600081526020016060815260200160008152602001600015158152602001600073ffffffffffffffffffffffffffffffffffffffff168152602001600073ffffffffffffffffffffffffffffffffffffffff1681525090565b828054600181600116156101000203166002900490600052602060002090601f016020900481019282601f1061187657805160ff19168380011785556118a4565b828001600101855582156118a4579182015b828111156118a3578251825591602001919060010190611888565b5b5090506118b191906118d1565b5090565b6040518060400160405280600015158152602001600081525090565b5b808211156118ea5760008160009055506001016118d2565b509056fe4552433732313a207472616e7366657220746f20746865207a65726f20616464726573734552433732313a207472616e73666572206f6620746f6b656e2074686174206973206e6f74206f776ea26469706673582212207bfa36ea1ddf5fec95967f87ad7e7c7a0a7791378e876854746a3760aac5999664736f6c63430007000033",
  "immutableReferences": {},
  "source": "//SPDX-License-Identifier: MIT\r\npragma solidity ^0.7.0;\r\ncontract TechInsurance{\r\n    /** \r\n     * Defined two structs\r\n     * \r\n     * \r\n     */\r\n    struct Product {\r\n        uint productId;\r\n        string productName;\r\n        uint price;\r\n        bool offered;\r\n        address ProductOwnerAddress;\r\n        address buyerAddress;\r\n    }\r\n    struct Client {\r\n        bool isValid;\r\n        uint time;\r\n    }\r\n    \r\n    event productLoaded(uint productId,string productName, uint price,bool offered);\r\n    event Refund(address target, uint256 amount);\r\n    \r\n    mapping (uint256 => address) public _owners;\r\n    mapping(address => uint256) public _balances;\r\n    mapping(uint => Product) public productIndex;\r\n    mapping(address => mapping(uint => Client)) public client;\r\n    \r\n    uint productCounter;\r\n    address payable insOwner;\r\n    \r\n    function addProduct(uint _productId, string memory _productName, uint _price ) public {\r\n        Product memory NewProduct = Product (_productId , _productName , _price , true, msg.sender, address(0));\r\n        productCounter++;\r\n        productIndex [productCounter ++] = NewProduct;\r\n        mint(msg.sender,productCounter);\r\n        emit productLoaded(_productId,_productName,_price,true);\r\n    }\r\n    function doNotOffer(uint _productIndex) public returns(bool) {\r\n        require(msg.sender == insOwner,\"No Offer\");\r\n        return productIndex[_productIndex].offered = false;\r\n    }\r\n    function forOffer(uint _productIndex) public returns(bool) {\r\n        require(msg.sender == insOwner,\"Yes Offer\");\r\n        return productIndex[_productIndex].offered = true;\r\n\r\n    }\r\n    function changePrice(uint _productIndex, uint _price) public view {\r\n        require( productIndex[_productIndex].price>=1);\r\n        productIndex[_productIndex].price==_price;\r\n    }\r\n    function balanceOf(address _insOwner) public view  returns(uint256) {\r\n        require(_insOwner != address(0));\r\n        return _balances[insOwner];\r\n        \r\n    }\r\n    /**\r\n    *@dev \r\n    * Every client buys an insurance, \r\n    * you need to map the client's address to the id of product to struct client, using (client map)\r\n    */\r\n    \r\n    function buyInsurance(uint _productIndex) public payable {\r\n        require(productIndex[_productIndex].price == msg.value ,\"Not correct\");\r\n        Client memory NewClient;\r\n        NewClient.isValid=true;\r\n        NewClient.time = block.number;\r\n        client[msg.sender][_productIndex]= NewClient;\r\n        //uint prices= msg.value;\r\n        payable(msg.sender).transfer(msg.value);\r\n        \r\n    } \r\n     \r\n    function Fatch(uint _productId)public view returns(uint productId,string memory productName,uint price, bool offere ,address owner,address buyer){\r\n      productId =productIndex [_productId].productId;\r\n      productName =productIndex [_productId].productName;\r\n      price = productIndex[_productId].price;\r\n      offere = productIndex[_productId].offered;\r\n      owner = productIndex[_productId].ProductOwnerAddress;\r\n      buyer = productIndex[_productId].buyerAddress;  \r\n    }\r\n    \r\n     function ownerOf(uint256 _tokenId) public view  returns (address owner) {\r\n        owner = _owners[_tokenId];\r\n        require(owner != address(0));\r\n    }\r\n     function transferID( address to, uint256 tokenId) public  {\r\n        //solhint-disable-next-line max-line-length\r\n        require(ownerOf(tokenId) == msg.sender,\"only owner\" );\r\n        require(to != address(0), \"address to not 0 \");\r\n        _transfer(msg.sender, to, tokenId);\r\n    }\r\n     function _transfer(address from, address to, uint256 tokenId) public  {\r\n        require(ownerOf(tokenId) == from, \"ERC721: transfer of token that is not own\");\r\n        require(to != address(0), \"ERC721: transfer to the zero address\");\r\n\r\n        _balances[from] -= 1;\r\n        _balances[to] += 1;\r\n        _owners[tokenId] = to;\r\n    }\r\n    \r\n    function mint(address to , uint256 tokenId)public {\r\n        require(to != address(0), \"ERC721: mint to the zero address\");\r\n        _balances[to] += 1;\r\n        _owners[tokenId] = to;\r\n    }\r\n     function _exists(uint256 tokenId) public view  returns (bool) {\r\n        return _owners[tokenId] != address(0);\r\n    }\r\n     \r\n    \r\n}",
  "sourcePath": "C:/Users/munir/Desktop/BootCampBlockchain/CodingDojoWeek6/Webpack_Insurace/contracts/Insurance.sol",
  "compiler": {
    "name": "solc",
    "version": "0.7.0+commit.9e61f92b.Emscripten.clang"
  },
  "schemaVersion": "3.3.4",
  "updatedAt": "2021-03-17T10:54:50.641Z",
  "networkType": "ethereum",
  "devdoc": {
    "kind": "dev",
    "methods": {
      "buyInsurance(uint256)": {
        "details": " Every client buys an insurance,  you need to map the client's address to the id of product to struct client, using (client map)"
      }
    },
    "version": 1
  },
  "userdoc": {
    "kind": "user",
    "methods": {},
    "version": 1
  }
}